:020000020000FC
:100000000C9434002224139FB001029FA001129F80
:10001000500D611D721D309F500D611D721D0895A0
:1000200088240A011B0161E24424552466247724B4
:10003000001C111C221C331C6A9589F0441C551CA1
:10004000661C771C401A510A6808780830F4400E84
:10005000511E681C781C8894EBCF0894E9CF089552
:1000600045E34A95F1F708950FEF0AB900E007B9A3
:10007000589A0E94300058984395D1F306B1003247
:1000800029F03395C9F3FACF239591F31395E1F352
:1000900006B1003009F0FACF37E0139F802D912D83
:1000A000022F10E02CEF36E00E940200A0E0B0E04A
:1000B000480F591F6A1F7B1F00E416E00E941000C2
:1000C000002D112D22E230E00E94020004E110E038
:1000D0000E941000C02DD12DE22DF32D29E236E92A
:1000E00040E84A95F1F73A95E1F72A95D1F7C0CF64
:00000001FF
